:020000040800F2
:10000000E8070020D5010008A72B00089F2B000857
:10001000A32B0008AD090008AD3100080000000066
:10002000000000000000000000000000E7010008E0
:10003000C109000800000000EB010008E12B0008E6
:10004000EF010008EF010008EF010008EF010008D0
:10005000EF010008EF010008C5090008EF010008E2
:10006000EF010008EF010008EF010008B1090008E6
:10007000EF010008EF010008EF010008EF010008A0
:10008000EF010008EF010008EF010008EF01000890
:10009000EF010008EF010008EF010008EF01000880
:1000A000EF010008EF010008EF010008EF01000870
:1000B000EF010008EF010008EF010008EF01000860
:1000C000EF010008EF010008EF010008EF01000850
:1000D000EF010008CD2D0008392E0008952E0008EC
:1000E000EF010008EF010008EF010008EF01000830
:1000F000EF010008EF010008EF010008EF01000820
:10010000EF010008EF010008EF010008EF0100080F
:10011000EF010008EF010008EF010008EF010008FF
:10012000EF010008EF010008EF010008EF010008EF
:1001300000F002F800F03FF80AA090E8000C8244BA
:100140008344AAF10107DA4501D100F034F8AFF297
:10015000090EBAE80F0013F0010F18BFFB1A43F0A5
:1001600001031847043E0000243E0000103A24BF5B
:1001700078C878C1FAD8520724BF30C830C144BF0C
:1001800004680C607047000000230024002500264E
:10019000103A28BF78C1FBD8520728BF30C148BFEA
:1001A0000B607047642900F07580002070471FB510
:1001B0001FBD10B510BD00F033F91146FFF7F7FF72
:1001C00003F038F800F051F903B4FFF7F2FF03BC75
:1001D00000F058F90948804709480047FEE7FEE764
:1001E000FEE7FEE7FEE7FEE7FEE7FEE7FEE7FEE7E7
:1001F00004480549054A064B704700004D2C00088D
:1002000031010008E8010020E8070020E803002091
:10021000E80300200FB4044910B503AA029800F0C7
:10022000D1F810BC5DF814FB280000202DE9F04146
:100230000E460446002020622046E168884730B31D
:10024000252805D0D4E901219047206A401CF2E717
:10025000E168204600278847050018D0A5F1410035
:10026000192802D820354FF4006732462946204627
:100270002760FFF797FF40B1012804D0F61D26F054
:1002800007060836D8E7361DD6E72846DAE7206A9B
:10029000BDE8F0812DE9F04106460024106875297B
:1002A000314616A510D0AFF30080002802DA404294
:1002B00013A507E031688A0701D512A502E04907B6
:1002C00004D511A5012401E0AFF3008000210A222A
:1002D00006F1240709E0B0FBF2FCB0FBF2F302FBED
:1002E0001C00303078541846491C0028F3D12346AE
:1002F0002A463046BDE8F04100F00BB8000000008F
:100300002D0000002B000000200000007047704707
:1003100070472DE9F0470D4699469246044600F194
:1003200024080168880604D5E06921F010012160E5
:1003300000E00120A84201DD471B00E00027A16981
:100340007A1902EB0900081AA0612078C00602D4CD
:100350002046AFF30080002608E0D4E901211AF816
:1003600006009047206A401C761C20624E45F4DB54
:100370002078C0060AD52046AFF3008006E0D4E915
:10038000012130209047206A401C2062381EA7F1CE
:100390000107F4DC07E0D4E9012118F805009047D3
:1003A000206A401C2062281EA5F10105F3DC2046CE
:1003B000AFF300802078000602D50220BDE8F08768
:1003C0000120FBE7074B70B50D467B4400F011F8A8
:1003D0000446284600F020F810B14FF0FF3070BD01
:1003E000204670BD2B2E000001694A1C026108786E
:1003F000704700B58FB0CDE9013100210591054965
:100400007944CDE9031011466846FFF70FFF0FB09E
:1004100000BD0000E5FFFFFF007B00F0800070479B
:10042000754600F02BF8AE4605006946534620F0AD
:100430000700854618B020B5FFF7DAFEBDE820407A
:100440004FF000064FF000074FF000084FF0000B90
:1004500021F00701AC46ACE8C009ACE8C009ACE843
:10046000C009ACE8C0098D46704710B50446AFF32B
:1004700000802046BDE81040FFF7A6BE0048704748
:100480008801002001491820ABBEFEE726000200CB
:10049000704770B5044600252068806800F00100B0
:1004A000F0B12068806820F001002168886001F0C8
:1004B0005FF905460EE001F05BF9401B022809D9FF
:1004C000A06A40F01000A062E06A40F00100E06223
:1004D000012070BD2068806800F001000028EAD18A
:1004E0000020F6E738B5044600250020009020687B
:1004F000806800F0010080BB2068806840F0010047
:1005000021688860164800681649B0FBF1F0009039
:1005100002E00098401E009000980028F9D101F0F8
:1005200027F9054613E001F023F9401B02280ED9F4
:10053000A06A40F01000A062E06A40F00100E062B2
:1005400000BF002084F8240000BF012038BD2068CF
:10055000806800F001000028E5D00020F6E70000E8
:100560003C00002040420F0010B504460121024823
:1005700000F0EAF810BD00000008014010B5044684
:100580000121024800F0E0F810BD00000010014019
:1005900010B504460221024800F0D6F810BD000054
:1005A0000010014010B504460421024800F0CCF8C8
:1005B00010BD00000010014010B50446082102489B
:1005C00000F0C2F810BD00000010014010B5044654
:1005D0000548844202D00548844203D108210448DA
:1005E00000F0B2F810BD00000024014000280140D6
:1005F0000010014010B504460548844202D0054869
:10060000844203D12021044800F09EF810BD000070
:1006100000240140002801400010014010B50446AC
:100620000221024800F090F810BD000000080140CF
:1006300010B504460421024800F086F810BD000001
:100640000008014010B504460821024800F07CF87B
:1006500010BD00000008014010B504460548844262
:1006600002D00548844203D11021044800F06CF800
:1006700010BD000000240140002801400008014096
:1006800010B504460548844202D00548844203D18F
:100690002021044800F058F810BD0000002401405B
:1006A000002801400008014010B504460548844276
:1006B00002D00548844203D14021044800F044F8A8
:1006C00010BD000000240140002801400008014046
:1006D00010B504460548844202D00548844203D13F
:1006E0008021044800F030F810BD000000240140D3
:1006F000002801400008014010B504460548844226
:1007000002D00548844203D10121044800F01CF8BE
:1007100010BD00000024014000280140000C0140F1
:1007200010B504460548844202D00548844203D1EE
:100730000221044800F008F810BD00000024014028
:1007400000280140000C014030B585B004460D463C
:10075000264884420DD100BF2548806940F004003E
:10076000234988610846806900F00400009000BFBA
:1007700032E0204884420DD100BF1D48806940F01E
:1007800008001B4988610846806900F00800009055
:1007900000BF21E0184884420DD100BF1448806991
:1007A00040F01000124988610846806900F010008E
:1007B000009000BF10E0114884420DD100BF0C48EA
:1007C000806940F020000A4988610846806900F08D
:1007D0002000009000BF00BF01950320029001A9F6
:1007E000204600F029FE05B030BD000000080140A1
:1007F00000100240000C01400010014000140140B4
:100800003EB505460C460094012001900720029059
:1008100069460C4800F090F908B100203EBD094837
:1008200000F0DCFB08B10020F8E70A21054800F0E1
:100830001DFB20B9034800F061FA80B2EEE700200A
:10084000ECE70000400000207FB505460C461CB9CF
:100850002846FFF789FE58E0012C03D12846FFF710
:10086000DDFE52E0022C03D12846FFF7E1FE4CE00A
:10087000032C03D12846FFF7E5FE46E0042C03D104
:100880002846FFF7E9FE40E0052C03D12846FFF794
:10089000F7FE3AE0062C03D12846FFF705FF34E0C7
:1008A000072C03D12846FFF713FF2EE0082C03D1B5
:1008B0002846FFF721FF28E0092C03D12846FFF73F
:1008C0002FFF22E00A2C03D12846FFF757FE1CE039
:1008D0000B2C03D12846FFF75BFE16E00C2C03D14E
:1008E0002846FFF75FFE10E00D2C03D12846FFF7E6
:1008F00063FE0AE00E2C03D12846FFF767FE04E0F2
:100900000F2C02D12846FFF775FE244885420DD1F1
:1009100000BF2348806940F400702149886108467F
:10092000806900F40070009000BF10E01D4885420F
:100930000DD100BF1A48806940F480601849886171
:100940000846806900F48060009000BF00BF164830
:10095000056000218160C16041614FF46021C16187
:1009600000201149486000210F4881610121016187
:1009700000F0C8F90194012002900720039001A91A
:10098000094800F0D9F800BF074800F053F80028E4
:10099000FAD1054800F022FB7FBD00000024014091
:1009A00000100240002801404000002000BFFEE788
:1009B00010B5024800F0AAFB10BD00005001002055
:1009C00000BFFEE710B50B48006800F0010078B1E9
:1009D00001200849086000F02EFD0121064800F0C2
:1009E000B9FE044622464FF40051044800F0BAFE16
:1009F00010BD000014040140000801400010014037
:100A00002DE9F0410746884614460025002609E0F6
:100A100041463846FFF7F4FE0544052002F0C8FBC6
:100A2000701CC6B2A642F3DBB5FBF4F080B2BDE8A1
:100A3000F0810000F8B5044600260020009000BFB9
:100A400094F82400012801D10220F8BD012084F887
:100A5000240000BF2046FFF71CFD0646002E62D191
:100A6000A06A20F4885040F00200A062022000F04A
:100A700061FF30490968B1FBF0F04000009002E0EE
:100A80000098401E009000980028F9D12046FFF7FA
:100A900029FD2068806840F008002168886000F027
:100AA00067FE054611E000F063FE401B0A280CD9E2
:100AB000A06A20F0020040F01000A06200BF0020F9
:100AC00084F8240000BF0120BFE72068806800F0A0
:100AD00008000028E7D12068806840F00400216801
:100AE000886000F045FE054611E000F041FE401B25
:100AF0000A280CD9A06A20F0020040F01000A06281
:100B000000BF002084F8240000BF01209DE720687A
:100B1000806800F004000028E7D1A06A20F00200FD
:100B200040F00100A06200BF002084F8240000BF54
:100B300030468AE73C00002078B5024600230020BA
:100B4000009000BF92F82400012801D1022078BD56
:100B5000012082F8240000BF486807281DD21068D1
:100B6000446B0879401E4FF4787595FAA5F5B5FAEF
:100B700085F568431F25854024EA05000C79641E2D
:100B80004FF4787696FAA6F6B6FA86F674430D68B0
:100B9000A5402843146860633DE048680D281DD2D5
:100BA0001068046B0879C01F4FF4787595FAA5F5A5
:100BB000B5FA85F568431F25854024EA05000C79C0
:100BC000E41F4FF4787696FAA6F6B6FA86F67443E2
:100BD0000D68A5402843146820631CE01068C46AAF
:100BE00008790D384FF4787595FAA5F5B5FA85F5BD
:100BF00068431F25854024EA05000C790D3C4FF41D
:100C0000787696FAA6F6B6FA86F674430D68A5408D
:100C100028431468E06208680A281BD31068C46877
:100C200008780A38382595FAA5F5B5FA85F56843A8
:100C30000725854024EA05000C780A3C382696FAF8
:100C4000A6F6B6FA86F674438D68A5402843146864
:100C5000E06017E0106800690C78382595FAA5F572
:100C6000B5FA85F56C430725A540A8430D783826CD
:100C700096FAA6F6B6FA86F675438C68AC40204321
:100C8000146820610868102802D00868112827D14C
:100C9000174C1068A0421ED11068806800F4000054
:100CA000F0B91068806840F400001468A06008681B
:100CB000102815D10F4800680F4CB0FBF4F000EB82
:100CC00080004000009002E00098401E00900098D4
:100CD0000028F9D104E0906A40F0200090620123DE
:100CE00000BF002082F8240000BF18462FE7000054
:100CF000002401403C00002040420F0001460868EB
:100D0000C06C70472DE9F0410446002700250026FD
:100D1000A84614B90120BDE8F081A06810B160694F
:100D200000B100BFA06A30B90020E06284F824005E
:100D3000204600F099F82046FFF7ABFB0746A06A73
:100D400000F01000002876D1002FFCD1A06A20F41A
:100D5000885040F00200A062E16960680843022206
:100D600092FAA2F2B2FA82F2E16891400843064395
:100D7000A068B0F5807F02D0A068012802D14FF4AE
:100D8000807000E0002005436069012816D1E0680A
:100D900060B9A069401E4FF4604191FAA1F1B1FA27
:100DA00081F1884040F40060054307E0A06A40F00C
:100DB0002000A062E06A40F00100E0622068406824
:100DC00020F46940284321684860206880682449ED
:100DD0000840304321688860A068B0F5807F02D069
:100DE000A068012802D14FF4807000E00020B0F527
:100DF000807F09D12069401E4FF4700191FAA1F162
:100E0000B1FA81F100FA01F82068C06A20F470009C
:100E100040EA08002168C8622068806811490840DB
:100E2000B04209D10020E062A06A20F0020040F048
:100E30000100A06211E00BE0A06A20F0020040F087
:100E40001000A062E06A40F00100E062012704E0C7
:100E5000A06A40F01000A062012738465BE700005E
:100E6000FDF7E1FFFE0E1FFF70470000F8B50446D6
:100E70000D46002600200090002700F079FC064671
:100E80002068806800F4807050B1A06A40F02000B3
:100E9000A06200BF002084F8240000BF0120F8BD3C
:100EA0002068406800F48070F8B92068C06A00F4D7
:100EB0007000D0B912E0681C80B125B100F058FC78
:100EC000801BA8420AD9A06A40F00400A06200BFBB
:100ED000002084F8240000BF0320E0E720680068B9
:100EE00000F002000028E6D050E0022000F022FDD1
:100EF00036490968B1FBF0F021680969344A1140AC
:100F000091B92168C9689211114069B921680969CC
:100F1000304A114031B92168C9689211114009B9AC
:100F2000142117E0292115E021680969294A114097
:100F300021B92168C9689211114041B1216809693C
:100F4000254A114029B92168C968114009B95421BD
:100F500000E0FC2100FB01F715E0681C80B125B121
:100F600000F006FC801BA8420AD9A06A40F00400E9
:100F7000A06200BF002084F8240000BF03208EE799
:100F80000098401C00900098B842E6D36FF0120021
:100F900021680860A06A40F40070A0622068806840
:100FA00000F46020B0F5602F0DD1E06858B9A06A58
:100FB00020F48070A062A06A00F4805018B9A06A82
:100FC00040F00100A062002069E700003C00002022
:100FD00024499224922449124992240070B504466F
:100FE000002500BF94F82400012801D1022070BD23
:100FF000012084F8240000BF2046FFF773FA05465D
:10100000002D77D1A06A40F20121884340F480701E
:10101000A0623C492068884208D13B48006800F43F
:10102000702008B9012002E0002000E0012078B122
:10103000A06A20F48010A0622068406800F48060FC
:1010400000B3A06A20F4005040F48050A06219E080
:10105000A06A40F48010A0622B49091F20688842D2
:1010600003D028492068884204D12748006800F44A
:10107000806000E0002028B1A06A20F4005040F415
:101080008050A062A06A00F4805020B1E06A20F095
:101090000600E06201E00020E06200BF002084F86A
:1010A000240000BFC01E216808602068806800F42A
:1010B0006020B0F5602F16D112492068884208D10F
:1010C0001148006800F4702008B9012002E00020F7
:1010D00000E0012038B12068806840F4A000216859
:1010E00088600CE006E02068806840F48010216889
:1010F000886004E000BF002084F8240000BF284678
:1011000075E70000002801400424014010B50446A2
:10111000C1480068C04A08322168914201D10821C3
:1011200027E0BD4A1C322168914201D1802120E094
:10113000B94A30322168914201D1C91419E0B64A46
:1011400044322168914202D14FF4004111E0B24A89
:1011500058322168914202D14FF4002109E0AE4A91
:101160006C322168914202D14FF4000101E04FF04E
:101170000061084000284DD020680068C0F3C0001E
:1011800090B32068006820F0080021680860A24938
:1011900008312068884201D1082028E09E491C318E
:1011A0002068884201D1802021E09B4930312068AD
:1011B000884201D1C0141AE097494431206888421E
:1011C00002D14FF4004012E0934958312068884220
:1011D00002D14FF400200AE08F496C312068884228
:1011E00003D14FF4000002E014E04FF000608A49A0
:1011F0004860606B40F001006063042084F82100C7
:1012000000BF002084F8200000BF206B10B12046F2
:10121000216B8847804800687F4A083221689142E4
:1012200001D1042127E07C4A1C322168914201D17E
:10123000402120E0784A30322168914201D10915DD
:1012400019E0754A44322168914202D14FF480413D
:1012500011E0714A58322168914202D14FF4802145
:1012600009E06D4A6C322168914202D14FF480014D
:1012700001E04FF080610840A0B320680068C0F32F
:10128000800078B32068006800F0200028B920684A
:10129000006820F00400216808605F490831206878
:1012A000884201D1042028E05B491C312068884233
:1012B00001D1402021E0584930312068884201D1D5
:1012C00000151AE0544944312068884202D14FF495
:1012D000804012E0504958312068884203D14FF4D1
:1012E00080200AE013E04C496C312068884202D12A
:1012F0004FF4800001E04FF08060474948601120C2
:1013000084F82100E06A10B12046E16A884742482B
:101310000068414A08322168914201D1022127E048
:101320003D4A1C322168914201D1202120E03A4AF5
:1013300030322168914201D1491519E0364A4432D0
:101340002168914202D14FF4005111E0324A5832E3
:101350002168914202D14FF4003109E02E4A6C32EB
:101360002168914202D14FF4001101E04FF0007169
:101370000840A0B320680068C0F3400078B320683C
:10138000006800F0200028B92068006820F0020002
:1013900021680860204908312068884201D1022074
:1013A00028E01D491C312068884201D1202021E01D
:1013B000194930312068884201D140151AE0164998
:1013C00044312068884202D14FF4005012E01249A3
:1013D00058312068884203D14FF400300AE01AE007
:1013E0000D496C312068884202D14FF4001001E0B1
:1013F0004FF0007008494860606B6063012084F81A
:10140000210000BF002084F8200000BFA06A10B1B6
:101410002046A16A884710BD0000024031B5002473
:1014200000F0A6F9044600BF00F0A2F9001B0099E5
:101430008842F9D338BD70472DE9F84703460024A8
:10144000002000258446002700226EE14FF00108AD
:1014500008FA02F4D1F8008008EA0400A0427DD125
:10146000DFF8D0A2D1F80480A8EB0A09D0453AD021
:1014700014DCB8F1030F50D009DCB8F1000F31D003
:10148000B8F1010F1CD0B8F1020F49D120E0B8F13A
:10149000110F18D0B8F1120F42D11EE0B9F5881F14
:1014A00025D006DCB9F5803F20D0B9F5801F37D1B3
:1014B0001AE0B9F5001F18D0B9F5041F30D117E0B4
:1014C000D1F80CC02DE0D1F80C8008F1040C28E014
:1014D000D1F80C8008F1080C23E0D1F80C8008F159
:1014E0000C0C1EE000BF00BF00BF00BF00BF00BF6C
:1014F000D1F80880B8F1000F02D14FF0040C0BE0D6
:10150000D1F80880B8F1010F03D14FF0080C1C612D
:1015100002E04FF0080C5C6103E04FF0000C00E0CB
:1015200000BF00BFFF2801D8984601E003F104087E
:101530004646FF2802D84FEA820803E0A2F10808D5
:101540004FEA88084746D6F800804FF00F0909FA9D
:1015500007F928EA09080CFA07F900E088E048EAE8
:101560000908C6F80080D1F8048008F08058B8F166
:10157000805F7DD100BFDFF8C081D8F8188048F0C7
:101580000108DFF8B491C9F81880C846D8F8188067
:1015900008F00108CDF8008000BF00BF4FEAB9385D
:1015A0004FEA920958F829504FEA82784FEA1879A1
:1015B0004FF00F0808FA09F825EA0805DFF87C81E2
:1015C000434502D14FF0000816E0DFF8748143452F
:1015D00002D14FF001080FE0DFF86881434502D1E6
:1015E0004FF0020808E0DFF86081434502D14FF078
:1015F000030801E04FF004084FEA82794FEA1979B5
:1016000008FA09F848EA0505DFF840814FEA92092F
:1016100048F82950D1F8048008F48038B8F5803FA4
:101620000AD1DFF82C81D8F8008048EA0008DFF8FA
:101630002091C9F8008009E0DFF81481D8F8008013
:1016400028EA0008DFF80891C9F80080D1F8048082
:1016500008F40038B8F5003F10D1DFF8F48008F145
:101660000408D8F8008048EA0008DFF8E49000E0B9
:101670005AE009F10409C9F800800DE0DFF8D080D4
:1016800008F10408D8F8008028EA0008DFF8C090C4
:1016900009F10409C9F80080D1F8048008F4801821
:1016A000B8F5801F0ED1DFF8A88008F10808D8F837
:1016B000008048EA0008DFF8989009F10809C9F8A5
:1016C00000800DE0DFF8888008F10808D8F8008075
:1016D00028EA0008DFF8789009F10809C9F80080C5
:1016E000D1F8048008F40018B8F5001F0ED1DFF817
:1016F000608008F10C08D8F8008048EA0008DFF89C
:10170000509009F10C09C9F800800DE0DFF8408025
:1017100008F10C08D8F8008028EA0008DFF83090BB
:1017200009F10C09C9F80080521C102AFFF48EAE92
:10173000BDE8F887000011100010024000080140C9
:10174000000C01400010014000140140080001405D
:1017500000040140024693680B400BB1012000E0F9
:10176000002070470AB1016101E00B04036170477A
:10177000014800687047000000000020024800682F
:10178000401C0149086070470000002010B508485F
:10179000006840F0100006490860032000F0B6F829
:1017A000002000F007F800F017F8002010BD00003E
:1017B0000020024070B5044600F034FC4FF47A710A
:1017C000B0FBF1F5284601F094F900222146501EA5
:1017D00000F05DF8002070BD08B500BF16488069B4
:1017E00040F00100144988610846806900F001005A
:1017F000009000BF00BF032000F088F800221146CF
:101800006FF00B0000F043F8002211466FF00A0061
:1018100000F03DF8002211466FF0090000F037F8A3
:1018200000221146101F00F032F800221146501E0F
:1018300000F02DF808BD00000010024000BF00F0CD
:101840001F0201219140034A430942F8231000BFBF
:101850007047000080E200E000BF00F01F0201219D
:101860009140034A430942F8231000BF704700002B
:1018700080E100E000BF00F01F0201219140420919
:10188000920002F1E022C2F8001100BF70472DE97A
:10189000F05F80460D461646002701F085F90746A1
:1018A00039462A46334601F00700C0F1070ABAF16B
:1018B000040F02D94FF0040A01E0C0F1070AD14633
:1018C00000F1040ABAF1070F02D24FF0000A01E05A
:1018D000A0F1030AD4464FF0010A0AFA09FAAAF164
:1018E000010A0AEA020A0AFA0CFA4FF0010B0BFA93
:1018F0000CFBABF1010B0BEA030B4AEA0B0421468C
:10190000404601F059F9BDE8F09F000000BF00F02B
:101910000702064B19684FF6FF031940044B0B43AF
:1019200043EA0221014B196000BF70470CED00E053
:101930000000FA052DE9F04385B0064647A30FCB1A
:1019400001AC0FC449A0006800900024A046A14645
:1019500000250027012E3DD0022E65D0102E77D114
:1019600043484468006800F0807068B304F4701065
:101970004FF4701191FAA1F1B1FA81F1C84001A9B7
:101980000F5C04F48030A0B13948406800F40030A6
:10199000710391FAA1F1B1FA81F1C8401DF80090EC
:1019A00004F4803040B13348B0FBF9F000FB07F598
:1019B00002E0314807FB00F52D48406800F4800044
:1019C000B0F5800F01D1A84603E068000321B0FB09
:1019D000F1F83EE02648046A04F44070B0F5807FD8
:1019E00005D104F0020010B14FF400481BE004F4EC
:1019F0004070B0F5007F07D11D48406A00F002003A
:101A000010B149F640480EE004F44070B0F5407F54
:101A100007D11748006800F4003010B14FF2244895
:101A200001E04FF0000814E000F02EFB01461048E2
:101A3000406800F440404FF4804292FAA2F2B2FAB9
:101A400082F2D040401C4000B1FBF0F801E0FFE71B
:101A500000BF00BF404605B0BDE8F08302030405A7
:101A6000060708090A0B0C0D0E0F101001020000EA
:101A70000010024000127A0000093D00F8B504464B
:101A800000250026207800F00100002874D000BF57
:101A90005448C06940F080505249C8610846C06946
:101AA00000F08050009000BF00BF4F48006840F435
:101AB00080704D490860FFF75BFE054606E0FFF7C2
:101AC00057FE401B642801D90320F8BD4648006832
:101AD00000F480700028F2D04248006A00F44070A0
:101AE000A18801F44071884260D03E48006A20F429
:101AF00040760121080490FAA0F0B0FA80F03B4A49
:101B000002EB8000C0F800140020090491FAA1F152
:101B1000B1FA81F102EB8101C1F80004314806629B
:101B200006F0020048B3FFF723FE054608E0FFF782
:101B30001FFE401B41F28831884201D90320C4E7CF
:101B40004020022191FAA1F1B1FA81F1084301216B
:101B5000B1EB601F02D12348006811E04020022150
:101B600091FAA1F1B1FA81F108430221B1EB601FB2
:101B700004D11C48006A03E018E00FE01948406AED
:101B80004021022292FAA2F2B2FA82F2114301F04B
:101B90001F020121914008400028C8D01148006A66
:101BA00020F44070616808430E490862207800F014
:101BB0000200022807D10B48406820F44040A16889
:101BC000084308494860207800F01000102807D129
:101BD0000448406820F48000E168084301494860F7
:101BE000002072E7001002400070004000004242F6
:101BF00070B504460D460026F748006800F007005F
:101C0000A84270D2F448006820F007002843F24947
:101C100008600846006800F00700A84201D00120D3
:101C200070BD207800F00200022807D1EB48406820
:101C300020F0F000A1680843E8494860207800F0EF
:101C4000010000286FD0606801282DD120200103F9
:101C500091FAA1F1B1FA81F108430121B1EB601FC2
:101C600002D1DE4800680FE02020010391FAA1F1C3
:101C7000B1FA81F108430221B1EB601F02D1D748CC
:101C8000006A01E0D548406A20210A0392FAA2F2D4
:101C9000B2FA82F2114301F01F0201219140084083
:101CA000002861D10120BBE7606802282DD12020E7
:101CB000010591FAA1F1B1FA81F108430121B1EBDB
:101CC000601F02D1C548006810E02020010591FA8C
:101CD000A1F1B1FA81F108430221B1EB601F03D1F8
:101CE000BE48006A02E083E0BC48406A20210A0541
:101CF00092FAA2F2B2FA82F2114301F01F0201211C
:101D00009140084078BB01208AE72020022191FA07
:101D1000A1F1B1FA81F108430121B1EB601F03D1B8
:101D2000AE48006810E05BE12020022191FAA1F1A9
:101D3000B1FA81F108430221B1EB601F02D1A7483B
:101D4000006A01E0A548406A2021022292FAA2F22C
:101D5000B2FA82F2114301F01F02012191400840C2
:101D600008B901205CE7FFE79C48406820F00300C9
:101D70006168084399494860FFF7FAFC06466068C5
:101D8000012810D108E0FFF7F3FC801B41F28831F5
:101D9000884201D9032043E79048406800F00C00D6
:101DA0000428F0D11CE16068022810D108E0FFF798
:101DB000DFFC801B41F28831884201D903202FE7E4
:101DC0008648406800F00C000828F0D108E108E0DF
:101DD000FFF7CEFC801B41F28831884201D90320F5
:101DE0001EE77E48406800F00C000028F0D1F7E0C4
:101DF000207800F00200022807D17848406820F0DF
:101E0000F000A168084375494860207800F001009F
:101E100000286ED0606801282CD12020010391FA9F
:101E2000A1F1B1FA81F108430121B1EB601F02D1A8
:101E30006A4800680FE02020010391FAA1F1B1FA8D
:101E400081F108430221B1EB601F02D16348006AAF
:101E500001E06248406A20210A0392FAA2F2B2FA33
:101E600082F2114301F01F0201219140084088BB1A
:101E70000120D5E6606802282DD12020010591FAC5
:101E8000A1F1B1FA81F108430121B1EB601F02D148
:101E9000524800680FE02020010591FAA1F1B1FA43
:101EA00081F108430221B1EB601F02D14B48006A67
:101EB00001E04A48406A20210A0592FAA2F2B2FAE9
:101EC00082F2114301F01F0201219140084008B93C
:101ED0000120A5E62DE02020022191FAA1F1B1FA1E
:101EE00081F108430121B1EB601F03D13B48006839
:101EF00010E061E02020022191FAA1F1B1FA81F114
:101F000008430221B1EB601F02D13448006A01E0AE
:101F10003248406A2021022292FAA2F2B2FA82F2F8
:101F2000114301F01F0201219140084008B901202E
:101F300076E62A48406820F0030061680843274994
:101F40004860FFF715FC06466068012810D108E0DC
:101F5000FFF70EFC801B41F28831884201D9032033
:101F60005EE61E48406800F00C000428F0D123E033
:101F70006068022810D108E0FFF7FAFB801B41F2ED
:101F80008831884201D903204AE61448406800F0AD
:101F90000C000828F0D10FE008E0FFF7E9FB801BF8
:101FA00041F28831884201D9032039E60B48406864
:101FB00000F00C000028F0D10748006820F007006E
:101FC0002843054908600846006800F00700A84259
:101FD00006D0012024E6000000200240001002404C
:101FE000207800F00400042807D10D48406820F450
:101FF000E060E16808430A494860207800F0080082
:10200000082808D10648406820F46050216940EA59
:10201000C100034948600020FFF7CCFB0020FFE52A
:102020000010024000B500F045F80949496801F088
:10203000F001F02292FAA2F2B2FA82F2D140054AFD
:10204000515CC840044908600846006800BD0000B3
:1020500000100240D83700083C00002000B5FFF710
:10206000E1FF0749496801F4E0614FF4E06292FA48
:10207000A2F2B2FA82F2D140024A515CC84000BDDD
:1020800000100240D837000800B5FFF7CBFF074922
:10209000496801F460514FF4605292FAA2F2B2FA28
:1020A00082F2D140024A515CC84000BD001002409B
:1020B000D8370008F0B585B00FF28C0C9CE8E01022
:1020C00001A8A0E8E01024A52D68009500210024B7
:1020D000002200230020214D696801F00C056DB33A
:1020E000042D02D0082D28D101E01D4828E001F47C
:1020F00070154FF4701696FAA6F6B6FA86F6F54005
:1021000001AE735D01F4803595B1144D6D6805F431
:1021100000354FF4003696FAA6F6B6FA86F6F54084
:102120001DF805400E4DB5FBF4F505FB03F202E08A
:102130000C4D03FB05F2104602E000BF084800BF4B
:1021400000BF05B0F0BD0000020304050607080942
:102150000A0B0C0D0E0F10100102000000100240BF
:1021600000127A0000093D0038B5044600252078A9
:1021700000F00100002877D0FC48406800F00C0017
:1021800004280CD0F948406800F00C00082837D12A
:10219000F648406800F48030B0F5803F30D1202010
:1021A000010391FAA1F1B1FA81F108430121B1EBE8
:1021B000601F02D1ED4800680FE02020010391FA72
:1021C000A1F1B1FA81F108430221B1EB601F02D104
:1021D000E648006A01E0E548406A20210A0392FAD5
:1021E000A2F2B2FA82F2114301F01F0201219140E2
:1021F00008400028BFD06068002835D1012038BDD4
:1022000000BFDA48006820F48030D84908600846EA
:10221000006820F48020086000BFFFF7A9FA054697
:1022200006E0FFF7A5FA401B642801D90320E6E782
:102230002020010391FAA1F1B1FA81F108430121B3
:10224000B1EB601F02D1C948006810E020200103F3
:1022500091FAA1F1B1FA81F108430221B1EB601FBB
:1022600003D1C248006A02E0B7E0C048406A2021BA
:102270000A0392FAA2F2B2FA82F2114301F01F02AB
:102280000121914008400028CBD100BF6068B0F523
:10229000803F06D1B548006840F48030B3490860FB
:1022A00028E0606858B9B148006820F48030AF4930
:1022B00008600846006820F4802008601AE0606822
:1022C000B0F5A02F0BD1A948006840F48020A749A1
:1022D00008600846006840F4803008600AE0A348BF
:1022E000006820F48030A14908600846006820F4A6
:1022F0008020086000BF6068B8B3FFF739FA054670
:1023000006E0FFF735FA401B642801D9032076E781
:102310002020010391FAA1F1B1FA81F108430121D2
:10232000B1EB601F02D1914800680FE0202001034B
:1023300091FAA1F1B1FA81F108430221B1EB601FDA
:1023400002D18A48006A01E08848406A20210A03D5
:1023500092FAA2F2B2FA82F2114301F01F020121B5
:10236000914008400028CCD037E0FFE7FFF700FAA3
:10237000054606E0FFF7FCF9401B642801D903205D
:102380003DE72020010391FAA1F1B1FA81F1084360
:102390000121B1EB601F02D1744800680FE02020DA
:1023A000010391FAA1F1B1FA81F108430221B1EBE5
:1023B000601F02D16D48006A01E06C48406A20212C
:1023C0000A0392FAA2F2B2FA82F2114301F01F025A
:1023D0000121914008400028CCD1207800F0020073
:1023E00002284ED16148406800F00C0050B15F48AF
:1023F000406800F00C00082844D15C48406800F4B4
:10240000803078BB2020022191FAA1F1B1FA81F14C
:1024100008430121B1EB601F02D1544800680FE06E
:102420002020022191FAA1F1B1FA81F108430221A1
:10243000B1EB601F02D14D48006A01E04B48406A91
:102440002021022292FAA2F2B2FA82F2114301F0A2
:102450001F0201219140084028B12069012802D0C3
:102460000120CCE60EE04148006820F0F800F82298
:1024700092FAA2F2B2FA82F26169914008433B49B2
:10248000086095E0206970B3012090FAA0F1B1FADC
:1024900081F1374A42F82100FFF76AF9054606E064
:1024A000FFF766F9401B022801D90320A7E6202088
:1024B000022191FAA1F1B1FA81F108430121B1EBB6
:1024C000601F02D12948006810E02020022191FA03
:1024D000A1F1B1FA81F108430221B1EB601F03D1F0
:1024E0002248006A02E01EE02048406A20210222C1
:1024F00092FAA2F2B2FA82F2114301F01F02012114
:10250000914008400028CBD01848006820F0F8001F
:10251000F82292FAA2F2B2FA82F26169914008437B
:102520001249086044E00020012191FAA1F1B1FABA
:1025300081F10F4A42F82100FFF71AF9054606E03B
:10254000FFF716F9401B022801D9032057E6202087
:10255000022191FAA1F1B1FA81F108430121B1EB15
:10256000601F07D10148006814E00000001002401D
:10257000000042422020022191FAA1F1B1FA81F13A
:1025800008430221B1EB601F02D1FC48006A01E060
:10259000FA48406A2021022292FAA2F2B2FA82F2AA
:1025A000114301F01F020121914008400028C7D1CA
:1025B000207800F00800082846D1A06980B30120E7
:1025C00090FAA0F1B1FA81F1ED4A02EB8101C1F874
:1025D0008004FFF7CDF8054606E0FFF7C9F8401B79
:1025E000022801D903200AE66020022191FAA1F114
:1025F000B1FA81F108430121B1EB601F02D1DF483C
:10260000006810E06020022191FAA1F1B1FA81F195
:1026100008430221B1EB601F03D1D848006A02E0F1
:1026200013E0D648406A6021022292FAA2F2B2FA7E
:1026300082F2114301F01F0201219140084000285D
:10264000CBD00120FEF7EAFE41E00020012191FA03
:10265000A1F1B1FA81F1CA4A02EB8101C1F880040B
:10266000FFF786F8054606E0FFF782F8401B0228D0
:1026700001D90320C3E56020022191FAA1F1B1FA4A
:1026800081F108430121B1EB601F02D1BB48006812
:102690000FE06020022191FAA1F1B1FA81F1084323
:1026A0000221B1EB601F02D1B448006A01E0B348D7
:1026B000406A6021022292FAA2F2B2FA82F2114337
:1026C00001F01F020121914008400028CCD1207860
:1026D00000F00400042875D100BFA848C06940F08C
:1026E0008050A649C8610846C06900F0805000903B
:1026F00000BF00BFA348006840F48070A149086093
:10270000FFF736F8054606E0FFF732F8401B64286D
:1027100001D9032073E59B48006800F4807000280D
:10272000F2D000BF9548006A20F00100934908628A
:102730000846006A20F00400086200BFFFF718F89E
:10274000054608E0FFF714F8401B41F28831884243
:1027500001D9032053E54020022191FAA1F1B1FAF9
:1027600081F108430121B1EB601F02D18348006869
:102770000FE04020022191FAA1F1B1FA81F1084362
:102780000221B1EB601F02D17C48006A01E07B4866
:10279000406A4021022292FAA2F2B2FA82F2114376
:1027A00001F01F020121914008400028CAD100BF5A
:1027B000E068012807D17148006A40F001006F49C4
:1027C000086228E09EE0E06858B96C48006A20F092
:1027D00001006A4908620846006A20F004000862A5
:1027E00019E0E06805280BD16448006A40F0040055
:1027F000624908620846006A40F0010008620AE087
:102800005E48006A20F001005C4908620846006AE0
:1028100020F00400086200BFE068C8B3FEF7A8FF1C
:10282000054608E0FEF7A4FF401B41F288318842CC
:1028300001D90320E3E44020022191FAA1F1B1FA89
:1028400081F108430121B1EB601F02D14B480068C0
:102850000FE04020022191FAA1F1B1FA81F1084381
:102860000221B1EB601F02D14448006A01E04348F5
:10287000406A4021022292FAA2F2B2FA82F2114395
:1028800001F01F020121914008400028CAD039E020
:10289000FFE7FEF76DFF054608E0FEF769FF401B06
:1028A00041F28831884201D90320A8E44020022166
:1028B00091FAA1F1B1FA81F108430121B1EB601F56
:1028C00002D12E4800680FE04020022191FAA1F1C8
:1028D000B1FA81F108430221B1EB601F02D1274810
:1028E000006A01E02548406A4021022292FAA2F2E1
:1028F000B2FA82F2114301F01F0201219140084017
:102900000028CAD1E069002871D01C48406800F056
:102910000C0008286CD0E06902286AD10021C005AB
:1029200090FAA0F0B0FA80F0154A42F82010FEF7B5
:102930001FFF054606E0FEF71BFF401B022801D9DA
:1029400003205CE42020010591FAA1F1B1FA81F1A4
:1029500008430121B1EB601F02D10848006815E06F
:102960002020010591FAA1F1B1FA81F10843022179
:10297000B1EB601F08D10148006A07E00010024077
:1029800000004242007000405748406A20210A057A
:1029900092FAA2F2B2FA82F2114301F01F0201216F
:1029A000914008400028C6D1206AB0F5803F07D189
:1029B0004D48406820F40030A16808434A49486007
:1029C000D4E9080108434849496821F474110843CF
:1029D000454948600120010691FAA1F1B1FA81F15F
:1029E000424A42F82100FEF7C3FE054609E079E0BD
:1029F00076E033E0FEF7BCFE401B022801D903203D
:102A000015E42020010591FAA1F1B1FA81F1084302
:102A10000121B1EB601F02D1334800680FE0202094
:102A2000010591FAA1F1B1FA81F108430221B1EB5C
:102A3000601F02D12C48006A01E02B48406A202127
:102A40000A0592FAA2F2B2FA82F2114301F01F02D1
:102A50000121914008400028CCD043E000214FF0F4
:102A6000807090FAA0F0B0FA80F0204A42F820106E
:102A7000FEF77EFE054606E0FEF77AFE401B0228C2
:102A800001D9032043E42020010591FAA1F1B1FA14
:102A900081F108430121B1EB601F02D112480068A7
:102AA0000FE02020010591FAA1F1B1FA81F108436C
:102AB0000221B1EB601F02D10B48006A01E00A4815
:102AC000406A20210A0592FAA2F2B2FA82F2114378
:102AD00001F01F020121914008400028CCD101E003
:102AE000012014E4002012E40010024000004242E1
:102AF000704770B504462546681EB0F1807F01D34B
:102B000001200FE0681E4FF0E02148610F214FF0D7
:102B1000FF3000F051F800204FF0E02188610720DD
:102B20000861002070BD10B5FFF7E2FF10BD10B5C1
:102B300004460CB9012010BDA06900B100E000BF3F
:102B400094F8390028B9002084F83800204600F0B5
:102B500025F8022084F839002068C06820F400506D
:102B60002168C860204600F09DF82068006920F4C4
:102B70009040216808612068406920F02A0021689F
:102B800048612068C06840F400502168C860002097
:102B9000E063012084F839000020CCE7704700BFD3
:102BA000FEE700BFFEE7704702480068C0F302205E
:102BB000704700000CED00E010B5002807DA0A07A6
:102BC000140E054A00F00F031B1FD45403E00A073C
:102BD000130E024A135410BD18ED00E000E400E0AB
:102BE00010B5FEF7CBFDFFF79EFF10BD00B593B00B
:102BF0000120099000040A9000200B9001200D9004
:102C000002201090C10311914FF4E011129109A814
:102C1000FFF7AAFA0F2004900220059000200690EA
:102C20004FF48060079000200890022104A8FEF76E
:102C3000DFFF122000904FF400400290002003902C
:102C40006846FEF71BFF13B000BD00001148006886
:102C500040F001000F490860084640680E490840EE
:102C60000C494860084600680C490840094908605A
:102C70000846006820F4802008600846406820F478
:102C8000FE0048604FF41F008860C80304490860D4
:102C900070470000001002400000FFF8FFFFF6FE42
:102CA00008ED00E02DE9F0410446002520680069A8
:102CB00020F44050E1680843216808612169A06858
:102CC0000843616940EA01052068C06841F20C616F
:102CD000884328432168C8602068406920F4407018
:102CE000A16908432168486137492068884234D186
:102CF000FFF7CAF900EBC00101EB00106168890021
:102D0000B0FBF1F06421B0FBF1F6FFF7BDF900EB89
:102D1000C00101EB001061688900B0FBF1F7FFF71B
:102D2000B3F900EBC00101EB001061688900B0FB52
:102D3000F1F06421B0FBF1F000EBC00101EB0010F9
:102D4000A7EB8000322101EB00106421B0FBF1F011
:102D500066F31F102168886033E0FFF77FF900EB0E
:102D6000C00101EB001061688900B0FBF1F0642143
:102D7000B0FBF1F6FFF772F900EBC00101EB0010B8
:102D800061688900B0FBF1F7FFF768F900EBC0015B
:102D900001EB001061688900B0FBF1F06421B0FB29
:102DA000F1F000EBC00101EB0010A7EB8000322135
:102DB00001EB00106421B0FBF1F066F31F102168F5
:102DC0008860BDE8F08100000038014010B5084877
:102DD000006800F0200030B10548001D0068C1B255
:102DE000044800F081F92521014800F08BF810BD5E
:102DF000003801400400002010B504463CB905210C
:102E0000092000F069FA00210A2000F065FA012C7F
:102E100007D10521162000F05FFA0021172000F0ED
:102E20005BFA022C07D10521092000F055FA002198
:102E3000172000F051FA10BD10B50848006800F0E6
:102E4000200030B10548001D0068C1B2044800F000
:102E50004BF92621014800F055F810BD0044004010
:102E60001000002010B50446032C07D105210220D4
:102E700000F032FA0021032000F02EFA042C07D1D2
:102E80000521352000F028FA0021362000F024FA30
:102E900010BD000010B50848006800F0200030B1F7
:102EA0000548001D0068C1B2044800F01DF9272143
:102EB000014800F027F810BD004800401C00002029
:102EC00010B50446052C07D105211A2000F004FA9C
:102ED00000211B2000F000FA062C07D105212A2032
:102EE00000F0FAF900212B2000F0F6F9072C07D1A9
:102EF0000521382000F0F0F90021392000F0ECF92C
:102F000010BD000038B505460C461E48056000BFE0
:102F10000068006800901B4800684068009000BF8F
:102F200000BF00BF1748006800680090154800689F
:102F30004068009000BF00BF00BF124800680068F2
:102F40000090104800684068009000BF00BF00BFBC
:102F50000C480068006800900A48006840680090CB
:102F600000BF00BF00BF0748006800680090054828
:102F700000684068009000BF00BF2046FEF75EFC7E
:102F800038BD0000D00000200146064A914200D121
:102F90000020054A914200D10120044A914200D10B
:102FA00002207047003801400044004000480040C3
:102FB0002DE9F04F91B004460D4616461F46DDE957
:102FC0001BABDDF86890444884421CD100BF4348E5
:102FD000806940F48040414988610846806900F476
:102FE0008040009000BF00BF0846C06840F48040A9
:102FF000C8600846C06820F48040C8602846FFF7D3
:10300000FBFE4FF02508364884421CD100BF3348F0
:10301000C06940F400303149C8610846C06900F415
:103020000030009000BF00BF0846006940F4003047
:1030300008610846006920F4003008612846FFF75F
:1030400011FF4FF02608274884421CD100BF2348B7
:10305000C06940F480202149C8610846C06900F475
:103060008020009000BF00BF0846006940F4802027
:1030700008610846006920F4802008612846FFF7AF
:103080001FFF4FF02708019402960797CDF818907C
:10309000CDF814A0CDF810B01D9803900021089130
:1030A0004046FEF7D9FB2046FFF76EFF0246062199
:1030B00000904046FEF7EBFB4046FEF7DBFB404648
:1030C000FEF7BCFB01A8FFF732FDE06840F02000EE
:1030D000E06011B0BDE8F08F003801400010024000
:1030E000004400400048004010B5C28883889A42DE
:1030F0000FDA028983889A4201D1002202814AB202
:10310000048903681A550289521C0281C288521C24
:10311000C28010BD7FB504460D461646164884424F
:103120000BD100200C23CDE900300290034632463B
:10313000294603902046FFF73BFF104884420BD1FD
:1031400000200C23CDE90030029003463246294688
:1031500003902046FFF72CFF094884420BD1002042
:103160000C23CDE9003002900346324629460390F5
:103170002046FFF71DFF7FBD00380140004400409E
:10318000004800400EE000BF026802F08002002A02
:10319000FAD011F8012B426000BF026802F08002F1
:1031A000002AFAD00A78002AEDD1704700BFFEE766
:1031B00070B504465CB100F08BF8054600BF00F026
:1031C0004FF900F085F8401BA042F8D300BF70BD56
:1031D00070B504460D4604EB4402064B03EBC202F5
:1031E000928891B204EB440253F832002A46FEF76B
:1031F000B9FA70BDE837000808B5C2B200920C4AAF
:10320000D26802F400528AB100BF094A126802F083
:103210008002002AF9D09DF80020054B5A6000BFBB
:10322000034A126802F08002002AF9D000BF08BDEC
:1032300000380140FEF7AAFAFFF7D8FC0320FEF79A
:1032400065FB4FF4E13200211848FFF763FF18A136
:103250001648FFF797FF02211848FDF7F5FA0121FC
:103260002D20FFF7B5FF20E00A2202211348FDF7C9
:10327000C7FB134908800846008800F04FFA8046D3
:1032800000F020FA06464FF066320E4B00F01CF9B3
:10329000044600F0E7F80C490860094801880BA0D3
:1032A000FCF7B8FFFA20FFF783FFDDE700380140A5
:1032B00053544D3332564E0A0000000000240140A2
:1032C0003400002066664A3F3800002025640A006A
:1032D00010B5FEF74DFA10BD2DE9F04186B0064657
:1032E0000C4606EB4600594951F8307006EB460093
:1032F00001EBC00080881FFA80F806EB460001EB66
:10330000C00085686DB900BF5148806940F0040075
:103310004F4988610846806900F00400019000BFB1
:1033200040E0012D0DD100BF4948806940F0080000
:10333000474988610846806900F00800019000BF95
:1033400030E0022D0DD100BF4148806940F01000EF
:103350003F4988610846806900F01000019000BF75
:1033600020E0032D0DD100BF3948806940F02000D6
:10337000374988610846806900F02000019000BF4D
:1033800010E0042D0DD100BF3148806940F04000AD
:103390002F4988610846806900F04000019000BF15
:1033A00000E000BFCDF808801CB900200390049015
:1033B00044E0022C04D100200390012004903DE061
:1033C000032C04D1002003900220049036E0012C4D
:1033D00004D101200390032005902FE0072C04D195
:1033E000112003900320059028E0042C04D1122022
:1033F00003900320059021E0052C04D102200390C6
:10340000032005901AE0062C04D10320039002202B
:10341000049013E00C2C04D10E480390002004907B
:103420000CE00D2C04D10C4803900120049005E021
:103430000E2C03D1094803900220049002A93846BB
:10344000FDF7FAFF06B0BDE8F0810000E83700089C
:103450000010024000003110000021100000111087
:103460007047000021F00042A2F16052B2F5801FC7
:1034700001F0004328BFD2F17F6C0BD95FEA001C3A
:1034800043EAC20242EB507018BF704728BF20F0D9
:1034900001007047B2F5801FBCBF184670474FEA65
:1034A000410C1CF5001F02D2084600F090B970B51F
:1034B00000F0B4F800000089FFF7F6BF4FF00040BD
:1034C000A0F5800070470000DFF848C170B51CEA25
:1034D000111E1EBF1CEA13159EEA0C0F95EA0C0F75
:1034E00000F06F8081EA030423EA4C134EEAD47E95
:1034F00021EA4C1141F4801143F48013AE44A1FB46
:10350000024CA0FB0365AEF17F7E361955EB0C052E
:10351000A1FB034C4CF10003A0FB021C16EB0C06B4
:10352000654153F10003094218BF46F0010613F448
:10353000007F0BD14FEA03314FEA0530340341EAF3
:10354000155140EA16506FF003020AE04FEAC3211A
:103550004FEAC520F40241EA555140EA56506FF057
:10356000020202EB2E4201EB025585EACE710AD02F
:103570005FEA440C18BF24F0004450F1000041F110
:10358000000120EAD47040F2FE7C624500D270BD9A
:10359000A84214BF4FF080444FF04044002E08BFB3
:1035A0000024BEF1806FA8BFA1F1C041BDE870400A
:1035B00080F282804FF0000001F1C04101F0004133
:1035C00070479EEA0C0F0CEA131518BF95EA0C0F12
:1035D00006D04FF0000081EA030E0EF0004170BDEE
:1035E00000F01CF88900013E00F007B800F009B8AF
:1035F0004FEA430C5FEA5C5C08D081EA030100F00B
:103600005BB84FEA410C5FEA5C5CF6D14FF000001A
:10361000014970470000FF070000F87F0EF1020E1D
:103620002EF0030E5EF8046B364205D4012A43EBFC
:10363000030515F5001F12D8012841EB010C1CF5FC
:10364000001F0CD80ED14FEAD17C15F5001F0CEBF2
:103650004C0C0CF1020C08BF4CEBD37C04E04FF097
:10366000080C01E04FEAD37C0CEB4C0526FA05F67A
:1036700006F00706B6F1040C06D20EEB860CBDE888
:1036800070404CF0010C6047DFE80CF0090B0202BF
:103690004FF000414FF00000A1F5002170BD194628
:1036A0001046012851EB010418BFD4F5001484BF63
:1036B000002001F0004170BD0808A0F500114FEA9C
:1036C0003101704743004FEAD30C4FEA3C0C4340B2
:1036D0001FBF40070CF1605113F0FE4F70471CF004
:1036E000006F03D100200CF0004170470CF0004344
:1036F00043EA507010B540EACC0000F022F800BF59
:10370000000000924FEA0001FFF7D6BF4FF00041E2
:103710004FF00000A1F5002170470000B0FA80F3DF
:1037200010FA03F2C3F19D030AD0D90501EB122070
:10373000530638BF704700F1010008BF20F00100B8
:1037400070470EF1020E2EF0030E5EF8044B244279
:1037500004D44FEA4102B2F17F4F11D84FEA40033F
:10376000B3F17F4F0CD80ED14FEAD07CB2F17F4F2E
:103770000CEB4C0C0CF1020C08BF4CEBD17C04E0C0
:103780004FF0080C01E04FEAD17C0CEB4C0324FA1B
:1037900003F404F00704B4F1040C06D20EEB840C1D
:1037A000BDE810404CF0010C6047DFE80CF0070862
:1037B00002024FF00040A0F5800010BD0846420014
:1037C00018BFD2F1807288BF00F0004010BDFF2109
:1037D00041EAD050C0057047000000000102030418
:1037E0000102030406070809000801400100000067
:1037F00000000000000000000000000000000000C9
:10380000000801400200000000000000010000006C
:103810000000004004000000000801400400000017
:10382000000000000200000000000040080000004E
:103830000008014008000000000000000300000034
:10384000000000400C0000000008014010000000D3
:103850000000000004000000000000000000000064
:1038600000080140200000000000000005000000EA
:1038700000000000000000000008014040000000BF
:1038800000000000060000000004004000000000EE
:103890000008014080000000000000000700000058
:1038A0000004004004000000000801400001000086
:1038B0000000000000000000002C0140000000009B
:1038C00000080140000200000000000000000000AD
:1038D000002C01400400000000080140000400002A
:1038E0000000000000000000002C01400800000063
:1038F0000008014000080000000000000000000077
:10390000002C01400C0000000008014000100000E5
:1039100000000000000000000000000000000000A7
:10392000000801400020000000000000000000002E
:1039300000000000000000000008014000400000FE
:103940000000000000000000000000000000000077
:10395000000801400080000000000000000000009E
:103960000000000000000000000C01400100000009
:1039700001000000080000000004004008000000F2
:10398000000C0140020000000100000009000000DE
:10399000000400400C000000000C01400400000086
:1039A0000100000000000000000000000000000016
:1039B000000C0140080000000100000000000000B1
:1039C0000000004004000000000C01401000000056
:1039D00001000000000000000004004000000000A2
:1039E000000C014020000000010000000000000069
:1039F0000004004004000000000C014040000000F2
:103A0000010000000000000000080040000000006D
:103A1000000C0140800000000100000000000000D8
:103A20000008004004000000000C014000010000FC
:103A30000100000000000000000000000000000085
:103A4000000C014000020000010000000000000026
:103A50000000000000000000000C01400004000015
:103A6000010000000000000000000040080000000D
:103A7000000C0140000800000100000000000000F0
:103A8000000000400C000000000C0140001000008D
:103A90000100000000000000000000000000000025
:103AA000000C0140002000000100000000000000A8
:103AB0000000000000000000000C01400040000079
:103AC00001000000000000000000000000000000F5
:103AD000000C014000800000010000000000000018
:103AE0000000000004000000001001400100000080
:103AF000020000000A0000000000000000000000BA
:103B00000010014002000000020000000B00000055
:103B10000000000000000000001001400400000050
:103B2000020000000C000000000000000000000087
:103B30000010014008000000020000000D0000001D
:103B40000000000000000000001001401000000014
:103B5000020000000E000000000000000000000055
:103B60000010014020000000020000000E000000D4
:103B700000000000000000000010014040000000B4
:103B80000200000000000000000000000000000033
:103B90000010014080000000020000000000000052
:103BA00000000000040000000010014000010000BF
:103BB00002000000000000000000000008000000FB
:103BC00000100140000200000200000000000000A0
:103BD000000000000C000000001001400004000084
:103BE00002000000000000000000000000000000D3
:103BF000001001400008000002000000000000006A
:103C00000000000000000000001001400010000053
:103C100002000000000000000000000000000000A2
:103C20000010014000200000020000000000000021
:103C300000000000000000000010014000400000F3
:103C40000200000000000000000000000000000072
:103C50000010014000800000020000000000000091
:103C600000000000000000000014014001000000FE
:103C70000300000000000000000000000000000041
:103C800000140140020000000300000000000000DA
:103C900000000000000000000014014004000000CB
:103CA0000300000000000000000000000000000011
:103CB00000140140080000000300000000000000A4
:103CC000000000000000000000140140100000008F
:103CD00003000000000000000000000000000000E1
:103CE000001401402000000003000000000000005C
:103CF000000000000000000000140140400000002F
:103D000003000000000000000000000000000000B0
:103D100000140140800000000300000000000000CB
:103D2000000000000000000000140140000100003D
:103D30000300000000000000000000000000000080
:103D40000014014000020000030000000000000019
:103D5000000000000000000000140140000400000A
:103D60000300000000000000000000000000000050
:103D700000140140000800000300000000000000E3
:103D800000000000000000000014014000100000CE
:103D900003000000000000000008004000000000D8
:103DA000001401400020000003000000000000009B
:103DB0000008004004000000001401400040000022
:103DC00003000000000000000008004008000000A0
:103DD000001401400080000003000000000000000B
:103DE000000800400C000000001801400100000025
:103DF00004000000000000000000000000000000BF
:103E00000018014002000000040000000000000053
:103E10000000000000000000001801400400000045
:103E2000040000000000000000000000000000008E
:103E3000001801400800000004000000000000001D
:103E40000000000000000000001801401000000009
:103E5000040000000000000000000000000000005E
:103E600000180140200000000400000000000000D5
:103E700000000000000000000018014040000000A9
:103E8000040000000000000000000000040000002A
:103E90000018014080000000040000000000000045
:103EA00000000000000000000018014000010000B8
:103EB00004000000000000000000000000000000FE
:103EC0000018014000020000040000000000000093
:103ED000002C014000000000001801400004000018
:103EE00004000000000000000000000000000000CE
:103EF000001801400008000004000000000000005D
:103F0000002C0140040000000018014000100000D7
:103F1000040000000000000000000000000000009D
:103F20000018014000200000040000000000000014
:103F3000002C014008000000001801400040000073
:103F40000400000000000000002C01400C000000F4
:103F50000018014000800000040000000000000084
:103F60000000000000000000883F00080000002062
:103F7000400000006C010008C83F0008400000201D
:103F8000A807000088010008000000007000002061
:103F90002000000000000000900000202000000031
:103FA00000000000B0000020200000000000000021
:103FB0000000000000000000000000000000000001
:083FC0000000000000A24A0409
:0400000508000131BD
:00000001FF
